:0400000080313328F0
:100008007E14803120007F08F100911E2F282300E4
:100018001D08F0007008FB001908F00070082000A7
:10002800E8006708573E860087010D30010603196E
:1000380021280F306702031C2B286708573E8600CB
:10004800870181010130E5000030E600E701013059
:10005800F0007008E7077108FF007E100900803182
:100068003528FB0157308400003085001230863176
:100078000E267E1020008531072D31302000B70074
:100088003708C00020003008B8002F08B700AF0AB2
:100098000319B00A37088400380885000008B90039
:1000A8003908C50045080319080025304506031915
:1000B8006228450886310626803146282000BF017F
:1000C80077283F1677284008860087010108B7007F
:1000D8003708C5000230B7003708C0074508863121
:1000E80006268031462820003008B8002F08B700BF
:1000F800AF0A0319B00A37088400380885000008D9
:10010800C500003A03195329633A03196728073AC7
:10011800031995280D3A03199528053A03196528F6
:10012800722820003F1EA528400886008701403F0E
:10013800C100413FC200423FC300433FC4000430F6
:10014800B628400886008701403FB700413FB80005
:100158003708C1003808C200890D893B8909C300E6
:10016800C4000230B7003708C007C41FCA280330CC
:10017800B7003708BF04C109C209C309C409C10AC5
:100188000319C20A0319C30A0319C40AC501C50A17
:100198000A3045060319FD284508B700B801B735E8
:1001A800B80DB735B80DDB30370784008230383DDD
:1001B8008500003FB900013FBA00023FBB00033F82
:1001C800BC003C084402031DF3283B084302031DFE
:1001D800F3283A084202031DF32839084102031C98
:1001E800FD280130B7003708C5070A304506031D4A
:1001F800D0283F080339031905292D3086310626F2
:10020800803120004508BD00BE01BD1BBE03FF3084
:100218002000BD07FF30BE3D3D0A03193E0A031901
:1002280046280030A8000030A7000030A6000A3099
:10023800A5003E0885003D0884008435850D843579
:10024800850DDB3084078230853D003FF200013F99
:10025800F300023FF400033FF5004408F9004308A7
:10026800F8004208F7004108F6008431B4248031D0
:1002780075082000AC007408AB007308AA00720867
:10028800A90085315025803120002508303EB7006F
:100298003708C50045088631062680310B29080035
:1002A8003C302000AF008330B000803141208131E4
:1002B80021000C14013023008C00C03021009E0066
:1002C800FF302000D1000130D2005208F30051085D
:1002D800F2008531D025813100302000CE00003079
:1002E800CD000030CC000030CB000030CA00003018
:1002F800C9000030C8000030C700CA1B8E294A0850
:10030800031DCF29E03047029330483B0430493B76
:100318000318CF2921009D149D1890291C0820003E
:10032800C6004608D00021001B082000C600460869
:10033800CF005008803AC60081304602031DA62926
:1003480091304F02031CB12901302000CB07003047
:10035800CC3D0030CD3D0030B929FF302000CB071F
:10036800FF30CC3DFF30CD3DFF30CE3D0130C707DB
:100378000030C83D0030C93D0030CA3DCA1B8E2937
:100388004A08031DCF29E03047029330483B043028
:10039800493B031C8E294E08A3004D08A2004C08B7
:1003A800A1004B08A0008531932581312000200849
:1003B800AB002108AC002208AD001230A800833041
:1003C800A9003A30AA00823127228131200028086A
:1003D800B8002908B9002A08BA008331622381319C
:1003E80020003808D1023908D23B043052020030CC
:1003F80003195102031C052AFF30D1000330D20033
:100408000B2A5108520403190B2AD101D2015208B0
:10041800F3005108F2008531D025813103302000E6
:10042800AF008330B0004E08B4004D08B3004C084C
:10043800B2004B08B1005208B6005108B50080312F
:1004480041208131702920002808AE002908AF001A
:100458002A08B00003102F0D300DB1003108B2008A
:100468003208031D3E2A0030A8000030A9000030E1
:10047800AA0008002B08AE002C08AF002D08B00019
:1004880003102F0D300DB1003108B7003708031DD8
:10049800542A0030A8000030A9000030AA00080043
:1004A80037087B3EAE002E08B2072808AE002908A0
:1004B800AF002A08B0001030B036AF0CAE0C890B74
:1004C800602A2E08B1003108B7002B08AE002C08AE
:1004D800AF002D08B0001030B036AF0CAE0C890B51
:1004E800702A2E08B1003108B7068030AE002E08F9
:1004F800B705A917AC17FF30AB05FF30AC050030C6
:10050800AD050030B3000030B4000030B50007304E
:10051800AE002E08B600281C972A2B08B3072C0813
:10052800B43D2D08B53D0130AA36A90CA80C890B9D
:10053800982A0130AB35AC0DAD0D890B9E2A0130E0
:10054800B602031D8F2A0930AE002E08B600281CFB
:10055800B32A2B08B3072C08B43D2D08B53D01304C
:10056800AA36A90CA80C890BB42A0130B536B40CEC
:10057800B30C890BBA2A0130B602031DAB2A330823
:10058800F2003408F3003508F4003208AE002E08F3
:10059800F5003708AF002F08F600843150247208A0
:1005A8002000A8007308A9007408AA0008000134F4
:1005B8000034003400340A34003400340034643425
:1005C800003400340034E834033400340034103488
:1005D800273400340034A0348634013400344034E5
:1005E80042340F3400348034963498340034003464
:1005F800E134F53405340034CA349A343B34483491
:10060800693467346834203463346F3475346E3435
:1006180074343A3425346C3464342C3420346434DF
:1006280075347434793420346334793463346C34F5
:1006380065343A34253464340A340D340034533480
:1006480057344334203469346E3474346534723426
:100658006634613463346534203466346934723402
:100668006D3477346134723465340D340A340034AF
:10067800523465346134643469346E3467342034F8
:1006880041344434433420346334683461346E3440
:100698006E3465346C34203430340A340D3400340C
:1006A80067346F347434203463346834613472349A
:1006B8003A34253463340A340D34003420003808C1
:1006C800BC003908BD003A08BE0003103D0D3E0DC0
:1006D800BF003F08C5004508031D7B2B0030BB0049
:1006E8000030BA000030B9000030B80008003808FF
:1006F800BC003908BD003A08BE001730BE36BD0C34
:10070800BC0C890B822B3C08BF003F08C000B917FE
:10071800FF30B805FF30B9050030BA053808C10008
:100728003908C2003A08C300C4018E30C502C51F8B
:10073800B92B4508803A8F3E0318AB2B0030BB001D
:100748000030BA000030B9000030B80008000130AD
:10075800C436C30CC20CC10C890BAC2B0130BC00D5
:100768003C08C5070319D22BAB2B18304502031CD4
:10077800CF2B0030BB000030BA000030B900003089
:10078800B80008000130C135C20DC30DC40D890B76
:10079800C72B0130C5024508031DC62B40080319A5
:1007A800E02BC109C209C309C409C10A0319C20A55
:1007B8000319C30A0319C40A4408BB004308BA0052
:1007C8004208B9004108B8000800C030F2007208B9
:1007D8002100990498010030F6000030F50000303F
:1007E800F4000030F300F61B052C7608031D1C2CC2
:1007F8007508031D1C2C103073022730743B031836
:100808001C2C00000130F3070030F43D0030F53DAA
:100818000030F63DF61B052C7608031D1C2C7508C8
:10082800031D1C2C103073022730743B031C052C4D
:1008380022009D171D1521000C128C1624009516F8
:100848001516151095141515951121000C158C14F5
:10085800A0302400920023009C0119309B001E1236
:100868009D179E1622001D1421008C16FF302000B3
:100878009B000C30250093009101FD30F2007208B6
:10088800200091050330F20072089C041C15210019
:100898008C1201309D00080075080319582C740843
:1008A80073047204031D692C0030F2000030F30059
:1008B8000030F40008000130F7007708F507013030
:1008C800F436F30CF20C890B642CFE307405031912
:1008D800822C5F2C0130F7007708F5070130F2070A
:1008E800003003180130F307003003180130F40713
:1008F8000130F436F30CF20C890B7D2CFF307405B3
:1009080003198F2C6E2C0130F5020130F235F30DEE
:10091800F40D890B8A2CF31B952C023075020318F1
:10092800872C75189D2CFF30F2057F30F305FF30BA
:10093800F4050310F50C7508F700F801F9011030FB
:10094800F735F80DF90D890BA42C7708F20478080F
:10095800F3047908F404760803190800F41708006A
:1009680000302000A3000030A2000030A1000030B9
:10097800A00075087404730472040319FE2CA40102
:10098800A40AF51BD32C0130F235F30DF40DF50D47
:10099800890BC82C0130FA007A08A407C52C01304D
:1009A800A035A10DA20DA30D890BD42C75087902D1
:1009B800031DE82C74087802031DE82C73087702DD
:1009C800031DE82C72087602031CF32C7208F60249
:1009D8007308F73B7408F83B7508F93B201401309D
:1009E800F536F40CF30CF20C890BF42C0130A4024C
:1009F800031DD32C2308F5002208F4002108F30076
:100A08002008F20008008331E92385312000E50140
:100A1800E601E7012330AF008330B0008031412088
:100A280085310030F2000230F3008531D025853160
:100A38008131542185318631142685312000D30037
:100A48005308E8005430AF008330B0006808D30082
:100A5800D4015308B1005408B200803141208531D7
:100A68002000911D1C2D9111240011082000D30095
:100A78005308D600240016181516A0302000560674
:100A8800031D1C2D911D462D9111240011082000D5
:100A9800D3005308D5001C2D20002808270426045D
:100AA800250403198A2DAE01AE0AA81B672D013053
:100AB800A535A60DA70DA80D890B5C2D0130AD003D
:100AC8002D08AE07592D28082C02031D752D27085F
:100AD8002B02031D752D26082A02031D752D2508D6
:100AE8002902031C7F2D2508A9022608AA3B2708EE
:100AF800AB3B2808AC3B0130A836A70CA60CA50CCC
:100B0800890B802D0130AE02031D672D2C08A8002B
:100B18002B08A7002A08A6002908A500080020001D
:100B2800A7018E30A4002408A600A31FA82DA009A1
:100B3800A109A209A309A00A0319A10A0319A20A73
:100B48000319A30AA701A70AFF3023050319B82D23
:100B58000130A336A20CA10CA00C890BAD2D0130DD
:100B6800A4002408A607A82D2008F2002108F300F5
:100B78002208F4002608A4002408F5002708A50088
:100B88002508F6008431502472082000A00073085C
:100B9800A1007408A2000800043073020030031991
:100BA8007202031CDB2DFF30F2000330F3007308E0
:100BB800F5007208F400F536F40CF536F40C7408F8
:100BC800F6007508F70076082500910003307205D5
:100BD800F60000307305F7007708F5007608F40092
:100BE800F40EF50EF030F50574080F39F504F03001
:100BF800F4057408F6007508F7007608F400740820
:100C080093040800F2002000111E072E720823002A
:100C18009A000800640080010131890B0F2E00340E
:040C28000030080090
:020000040001F9
:04000E00E4C9FFDF63
:00000001FF
